{
  "_format": "hh-sol-artifact-1",
  "contractName": "Eword",
  "sourceName": "contracts/Eword.sol",
  "abi": [
    {
      "inputs": [
        {
          "internalType": "string",
          "name": "_name",
          "type": "string"
        }
      ],
      "stateMutability": "nonpayable",
      "type": "constructor"
    },
    {
      "anonymous": false,
      "inputs": [
        {
          "indexed": false,
          "internalType": "uint256",
          "name": "id",
          "type": "uint256"
        },
        {
          "indexed": false,
          "internalType": "string",
          "name": "hash",
          "type": "string"
        }
      ],
      "name": "EWordCreated",
      "type": "event"
    },
    {
      "inputs": [
        {
          "internalType": "string",
          "name": "hash",
          "type": "string"
        }
      ],
      "name": "createEWord",
      "outputs": [],
      "stateMutability": "nonpayable",
      "type": "function"
    },
    {
      "inputs": [
        {
          "internalType": "string",
          "name": "hash",
          "type": "string"
        }
      ],
      "name": "fetchEWord",
      "outputs": [
        {
          "components": [
            {
              "internalType": "uint256",
              "name": "id",
              "type": "uint256"
            },
            {
              "internalType": "string",
              "name": "content",
              "type": "string"
            }
          ],
          "internalType": "struct Eword.EWord",
          "name": "",
          "type": "tuple"
        }
      ],
      "stateMutability": "view",
      "type": "function"
    },
    {
      "inputs": [],
      "name": "fetchEWords",
      "outputs": [
        {
          "components": [
            {
              "internalType": "uint256",
              "name": "id",
              "type": "uint256"
            },
            {
              "internalType": "string",
              "name": "content",
              "type": "string"
            }
          ],
          "internalType": "struct Eword.EWord[]",
          "name": "",
          "type": "tuple[]"
        }
      ],
      "stateMutability": "view",
      "type": "function"
    },
    {
      "inputs": [],
      "name": "name",
      "outputs": [
        {
          "internalType": "string",
          "name": "",
          "type": "string"
        }
      ],
      "stateMutability": "view",
      "type": "function"
    },
    {
      "inputs": [],
      "name": "owner",
      "outputs": [
        {
          "internalType": "address",
          "name": "",
          "type": "address"
        }
      ],
      "stateMutability": "view",
      "type": "function"
    },
    {
      "inputs": [
        {
          "internalType": "address",
          "name": "newOwner",
          "type": "address"
        }
      ],
      "name": "transferOwnership",
      "outputs": [],
      "stateMutability": "nonpayable",
      "type": "function"
    },
    {
      "inputs": [
        {
          "internalType": "string",
          "name": "_name",
          "type": "string"
        }
      ],
      "name": "updateName",
      "outputs": [],
      "stateMutability": "nonpayable",
      "type": "function"
    }
  ],
  "bytecode": "0x60806040523480156200001157600080fd5b506040516200192e3803806200192e83398181016040528101906200003791906200033f565b620000836040518060400160405280601981526020017f4465706c6f79696e6720426c6f672077697468206e616d653a0000000000000081525082620000dd60201b6200063b1760201c565b8060009081620000949190620005db565b5033600160006101000a81548173ffffffffffffffffffffffffffffffffffffffff021916908373ffffffffffffffffffffffffffffffffffffffff160217905550506200074f565b6200017f8282604051602401620000f692919062000714565b6040516020818303038152906040527f4b5c4277000000000000000000000000000000000000000000000000000000007bffffffffffffffffffffffffffffffffffffffffffffffffffffffff19166020820180517bffffffffffffffffffffffffffffffffffffffffffffffffffffffff83818316178352505050506200018360201b60201c565b5050565b60008151905060006a636f6e736f6c652e6c6f679050602083016000808483855afa5050505050565b6000604051905090565b600080fd5b600080fd5b600080fd5b600080fd5b6000601f19601f8301169050919050565b7f4e487b7100000000000000000000000000000000000000000000000000000000600052604160045260246000fd5b6200021582620001ca565b810181811067ffffffffffffffff82111715620002375762000236620001db565b5b80604052505050565b60006200024c620001ac565b90506200025a82826200020a565b919050565b600067ffffffffffffffff8211156200027d576200027c620001db565b5b6200028882620001ca565b9050602081019050919050565b60005b83811015620002b557808201518184015260208101905062000298565b60008484015250505050565b6000620002d8620002d2846200025f565b62000240565b905082815260208101848484011115620002f757620002f6620001c5565b5b6200030484828562000295565b509392505050565b600082601f830112620003245762000323620001c0565b5b815162000336848260208601620002c1565b91505092915050565b600060208284031215620003585762000357620001b6565b5b600082015167ffffffffffffffff811115620003795762000378620001bb565b5b62000387848285016200030c565b91505092915050565b600081519050919050565b7f4e487b7100000000000000000000000000000000000000000000000000000000600052602260045260246000fd5b60006002820490506001821680620003e357607f821691505b602082108103620003f957620003f86200039b565b5b50919050565b60008190508160005260206000209050919050565b60006020601f8301049050919050565b600082821b905092915050565b600060088302620004637fffffffffffffffffffffffffffffffffffffffffffffffffffffffffffffffff8262000424565b6200046f868362000424565b95508019841693508086168417925050509392505050565b6000819050919050565b6000819050919050565b6000620004bc620004b6620004b08462000487565b62000491565b62000487565b9050919050565b6000819050919050565b620004d8836200049b565b620004f0620004e782620004c3565b84845462000431565b825550505050565b600090565b62000507620004f8565b62000514818484620004cd565b505050565b5b818110156200053c5762000530600082620004fd565b6001810190506200051a565b5050565b601f8211156200058b576200055581620003ff565b620005608462000414565b8101602085101562000570578190505b620005886200057f8562000414565b83018262000519565b50505b505050565b600082821c905092915050565b6000620005b06000198460080262000590565b1980831691505092915050565b6000620005cb83836200059d565b9150826002028217905092915050565b620005e68262000390565b67ffffffffffffffff811115620006025762000601620001db565b5b6200060e8254620003ca565b6200061b82828562000540565b600060209050601f8311600181146200065357600084156200063e578287015190505b6200064a8582620005bd565b865550620006ba565b601f1984166200066386620003ff565b60005b828110156200068d5784890151825560018201915060208501945060208101905062000666565b86831015620006ad5784890151620006a9601f8916826200059d565b8355505b6001600288020188555050505b505050505050565b600082825260208201905092915050565b6000620006e08262000390565b620006ec8185620006c2565b9350620006fe81856020860162000295565b6200070981620001ca565b840191505092915050565b60006040820190508181036000830152620007308185620006d3565b90508181036020830152620007468184620006d3565b90509392505050565b6111cf806200075f6000396000f3fe608060405234801561001057600080fd5b506004361061007d5760003560e01c806384da92a71161005b57806384da92a7146100ec5780638da5cb5b14610108578063b1696f4f14610126578063f2fde38b146101445761007d565b806306fdde0314610082578063293b2ce5146100a05780632e4f8cf6146100bc575b600080fd5b61008a610160565b60405161009791906107ce565b60405180910390f35b6100ba60048036038101906100b59190610939565b6101ee565b005b6100d660048036038101906100d19190610939565b610311565b6040516100e39190610a22565b60405180910390f35b61010660048036038101906101019190610939565b6103e5565b005b6101106103f8565b60405161011d9190610a85565b60405180910390f35b61012e61041e565b60405161013b9190610b9f565b60405180910390f35b61015e60048036038101906101599190610bed565b61059d565b005b6000805461016d90610c49565b80601f016020809104026020016040519081016040528092919081815260200182805461019990610c49565b80156101e65780601f106101bb576101008083540402835291602001916101e6565b820191906000526020600020905b8154815290600101906020018083116101c957829003601f168201915b505050505081565b600160009054906101000a900473ffffffffffffffffffffffffffffffffffffffff1673ffffffffffffffffffffffffffffffffffffffff163373ffffffffffffffffffffffffffffffffffffffff161461024857600080fd5b61025260026106d7565b600061025e60026106ed565b90506000600360008381526020019081526020016000209050818160000181905550828160010190816102919190610e26565b50806004846040516102a39190610f34565b908152602001604051809103902060008201548160000155600182018160010190816102cf9190610f61565b509050507f8fb8739ab6dbe7334c4cf34f62b28de7a1cc05ac6de7380889981198830ec4548284604051610304929190611058565b60405180910390a1505050565b610319610724565b6004826040516103299190610f34565b90815260200160405180910390206040518060400160405290816000820154815260200160018201805461035c90610c49565b80601f016020809104026020016040519081016040528092919081815260200182805461038890610c49565b80156103d55780601f106103aa576101008083540402835291602001916103d5565b820191906000526020600020905b8154815290600101906020018083116103b857829003601f168201915b5050505050815250509050919050565b80600090816103f49190610e26565b5050565b600160009054906101000a900473ffffffffffffffffffffffffffffffffffffffff1681565b6060600061042c60026106ed565b905060008167ffffffffffffffff81111561044a5761044961080e565b5b60405190808252806020026020018201604052801561048357816020015b610470610724565b8152602001906001900390816104685790505b50905060005b828110156105945760006001826104a091906110b7565b9050600060036000838152602001908152602001600020905080604051806040016040529081600082015481526020016001820180546104df90610c49565b80601f016020809104026020016040519081016040528092919081815260200182805461050b90610c49565b80156105585780601f1061052d57610100808354040283529160200191610558565b820191906000526020600020905b81548152906001019060200180831161053b57829003601f168201915b505050505081525050848481518110610574576105736110eb565b5b60200260200101819052505050808061058c9061111a565b915050610489565b50809250505090565b600160009054906101000a900473ffffffffffffffffffffffffffffffffffffffff1673ffffffffffffffffffffffffffffffffffffffff163373ffffffffffffffffffffffffffffffffffffffff16146105f757600080fd5b80600160006101000a81548173ffffffffffffffffffffffffffffffffffffffff021916908373ffffffffffffffffffffffffffffffffffffffff16021790555050565b6106d38282604051602401610651929190611162565b6040516020818303038152906040527f4b5c4277000000000000000000000000000000000000000000000000000000007bffffffffffffffffffffffffffffffffffffffffffffffffffffffff19166020820180517bffffffffffffffffffffffffffffffffffffffffffffffffffffffff83818316178352505050506106fb565b5050565b6001816000016000828254019250508190555050565b600081600001549050919050565b60008151905060006a636f6e736f6c652e6c6f679050602083016000808483855afa5050505050565b604051806040016040528060008152602001606081525090565b600081519050919050565b600082825260208201905092915050565b60005b8381101561077857808201518184015260208101905061075d565b60008484015250505050565b6000601f19601f8301169050919050565b60006107a08261073e565b6107aa8185610749565b93506107ba81856020860161075a565b6107c381610784565b840191505092915050565b600060208201905081810360008301526107e88184610795565b905092915050565b6000604051905090565b600080fd5b600080fd5b600080fd5b600080fd5b7f4e487b7100000000000000000000000000000000000000000000000000000000600052604160045260246000fd5b61084682610784565b810181811067ffffffffffffffff821117156108655761086461080e565b5b80604052505050565b60006108786107f0565b9050610884828261083d565b919050565b600067ffffffffffffffff8211156108a4576108a361080e565b5b6108ad82610784565b9050602081019050919050565b82818337600083830152505050565b60006108dc6108d784610889565b61086e565b9050828152602081018484840111156108f8576108f7610809565b5b6109038482856108ba565b509392505050565b600082601f8301126109205761091f610804565b5b81356109308482602086016108c9565b91505092915050565b60006020828403121561094f5761094e6107fa565b5b600082013567ffffffffffffffff81111561096d5761096c6107ff565b5b6109798482850161090b565b91505092915050565b6000819050919050565b61099581610982565b82525050565b600082825260208201905092915050565b60006109b78261073e565b6109c1818561099b565b93506109d181856020860161075a565b6109da81610784565b840191505092915050565b60006040830160008301516109fd600086018261098c565b5060208301518482036020860152610a1582826109ac565b9150508091505092915050565b60006020820190508181036000830152610a3c81846109e5565b905092915050565b600073ffffffffffffffffffffffffffffffffffffffff82169050919050565b6000610a6f82610a44565b9050919050565b610a7f81610a64565b82525050565b6000602082019050610a9a6000830184610a76565b92915050565b600081519050919050565b600082825260208201905092915050565b6000819050602082019050919050565b6000604083016000830151610ae4600086018261098c565b5060208301518482036020860152610afc82826109ac565b9150508091505092915050565b6000610b158383610acc565b905092915050565b6000602082019050919050565b6000610b3582610aa0565b610b3f8185610aab565b935083602082028501610b5185610abc565b8060005b85811015610b8d5784840389528151610b6e8582610b09565b9450610b7983610b1d565b925060208a01995050600181019050610b55565b50829750879550505050505092915050565b60006020820190508181036000830152610bb98184610b2a565b905092915050565b610bca81610a64565b8114610bd557600080fd5b50565b600081359050610be781610bc1565b92915050565b600060208284031215610c0357610c026107fa565b5b6000610c1184828501610bd8565b91505092915050565b7f4e487b7100000000000000000000000000000000000000000000000000000000600052602260045260246000fd5b60006002820490506001821680610c6157607f821691505b602082108103610c7457610c73610c1a565b5b50919050565b60008190508160005260206000209050919050565b60006020601f8301049050919050565b600082821b905092915050565b600060088302610cdc7fffffffffffffffffffffffffffffffffffffffffffffffffffffffffffffffff82610c9f565b610ce68683610c9f565b95508019841693508086168417925050509392505050565b6000819050919050565b6000610d23610d1e610d1984610982565b610cfe565b610982565b9050919050565b6000819050919050565b610d3d83610d08565b610d51610d4982610d2a565b848454610cac565b825550505050565b600090565b610d66610d59565b610d71818484610d34565b505050565b5b81811015610d9557610d8a600082610d5e565b600181019050610d77565b5050565b601f821115610dda57610dab81610c7a565b610db484610c8f565b81016020851015610dc3578190505b610dd7610dcf85610c8f565b830182610d76565b50505b505050565b600082821c905092915050565b6000610dfd60001984600802610ddf565b1980831691505092915050565b6000610e168383610dec565b9150826002028217905092915050565b610e2f8261073e565b67ffffffffffffffff811115610e4857610e4761080e565b5b610e528254610c49565b610e5d828285610d99565b600060209050601f831160018114610e905760008415610e7e578287015190505b610e888582610e0a565b865550610ef0565b601f198416610e9e86610c7a565b60005b82811015610ec657848901518255600182019150602085019450602081019050610ea1565b86831015610ee35784890151610edf601f891682610dec565b8355505b6001600288020188555050505b505050505050565b600081905092915050565b6000610f0e8261073e565b610f188185610ef8565b9350610f2881856020860161075a565b80840191505092915050565b6000610f408284610f03565b915081905092915050565b600081549050610f5a81610c49565b9050919050565b818103610f6f575050611047565b610f7882610f4b565b67ffffffffffffffff811115610f9157610f9061080e565b5b610f9b8254610c49565b610fa6828285610d99565b6000601f831160018114610fd55760008415610fc3578287015490505b610fcd8582610e0a565b865550611040565b601f198416610fe387610c7a565b9650610fee86610c7a565b60005b8281101561101657848901548255600182019150600185019450602081019050610ff1565b86831015611033578489015461102f601f891682610dec565b8355505b6001600288020188555050505b5050505050505b565b61105281610982565b82525050565b600060408201905061106d6000830185611049565b818103602083015261107f8184610795565b90509392505050565b7f4e487b7100000000000000000000000000000000000000000000000000000000600052601160045260246000fd5b60006110c282610982565b91506110cd83610982565b92508282019050808211156110e5576110e4611088565b5b92915050565b7f4e487b7100000000000000000000000000000000000000000000000000000000600052603260045260246000fd5b600061112582610982565b91507fffffffffffffffffffffffffffffffffffffffffffffffffffffffffffffffff820361115757611156611088565b5b600182019050919050565b6000604082019050818103600083015261117c8185610795565b905081810360208301526111908184610795565b9050939250505056fea264697066735822122093b0a5a1a2282275a3db5dd134f60de4894d991b42d9961d55dc26ea60f9aadc64736f6c63430008110033",
  "linkReferences": {},
  "deployedLinkReferences": {}
}