{
  "_format": "hh-sol-artifact-1",
  "contractName": "Eword",
  "sourceName": "contracts/Eword.sol",
  "abi": [
    {
      "inputs": [
        {
          "internalType": "string",
          "name": "_name",
          "type": "string"
        }
      ],
      "stateMutability": "nonpayable",
      "type": "constructor"
    },
    {
      "anonymous": false,
      "inputs": [
        {
          "indexed": false,
          "internalType": "uint256",
          "name": "id",
          "type": "uint256"
        },
        {
          "indexed": false,
          "internalType": "string",
          "name": "engword",
          "type": "string"
        },
        {
          "indexed": false,
          "internalType": "string",
          "name": "plword",
          "type": "string"
        },
        {
          "indexed": false,
          "internalType": "string",
          "name": "hash",
          "type": "string"
        }
      ],
      "name": "EWordCreated",
      "type": "event"
    },
    {
      "inputs": [
        {
          "internalType": "string",
          "name": "engword",
          "type": "string"
        },
        {
          "internalType": "string",
          "name": "plword",
          "type": "string"
        },
        {
          "internalType": "string",
          "name": "hash",
          "type": "string"
        }
      ],
      "name": "createEWord",
      "outputs": [],
      "stateMutability": "nonpayable",
      "type": "function"
    },
    {
      "inputs": [
        {
          "internalType": "string",
          "name": "hash",
          "type": "string"
        }
      ],
      "name": "fetchEWord",
      "outputs": [
        {
          "components": [
            {
              "internalType": "uint256",
              "name": "id",
              "type": "uint256"
            },
            {
              "internalType": "string",
              "name": "engword",
              "type": "string"
            },
            {
              "internalType": "string",
              "name": "plword",
              "type": "string"
            },
            {
              "internalType": "string",
              "name": "content",
              "type": "string"
            },
            {
              "internalType": "bool",
              "name": "published",
              "type": "bool"
            }
          ],
          "internalType": "struct Eword.EWord",
          "name": "",
          "type": "tuple"
        }
      ],
      "stateMutability": "view",
      "type": "function"
    },
    {
      "inputs": [],
      "name": "fetchEWords",
      "outputs": [
        {
          "components": [
            {
              "internalType": "uint256",
              "name": "id",
              "type": "uint256"
            },
            {
              "internalType": "string",
              "name": "engword",
              "type": "string"
            },
            {
              "internalType": "string",
              "name": "plword",
              "type": "string"
            },
            {
              "internalType": "string",
              "name": "content",
              "type": "string"
            },
            {
              "internalType": "bool",
              "name": "published",
              "type": "bool"
            }
          ],
          "internalType": "struct Eword.EWord[]",
          "name": "",
          "type": "tuple[]"
        }
      ],
      "stateMutability": "view",
      "type": "function"
    },
    {
      "inputs": [],
      "name": "name",
      "outputs": [
        {
          "internalType": "string",
          "name": "",
          "type": "string"
        }
      ],
      "stateMutability": "view",
      "type": "function"
    },
    {
      "inputs": [],
      "name": "owner",
      "outputs": [
        {
          "internalType": "address",
          "name": "",
          "type": "address"
        }
      ],
      "stateMutability": "view",
      "type": "function"
    },
    {
      "inputs": [
        {
          "internalType": "address",
          "name": "newOwner",
          "type": "address"
        }
      ],
      "name": "transferOwnership",
      "outputs": [],
      "stateMutability": "nonpayable",
      "type": "function"
    },
    {
      "inputs": [
        {
          "internalType": "string",
          "name": "_name",
          "type": "string"
        }
      ],
      "name": "updateName",
      "outputs": [],
      "stateMutability": "nonpayable",
      "type": "function"
    }
  ],
  "bytecode": "0x60806040523480156200001157600080fd5b5060405162001ddb38038062001ddb83398181016040528101906200003791906200033f565b620000836040518060400160405280601981526020017f4465706c6f79696e6720426c6f672077697468206e616d653a0000000000000081525082620000dd60201b620009571760201c565b8060009081620000949190620005db565b5033600160006101000a81548173ffffffffffffffffffffffffffffffffffffffff021916908373ffffffffffffffffffffffffffffffffffffffff160217905550506200074f565b6200017f8282604051602401620000f692919062000714565b6040516020818303038152906040527f4b5c4277000000000000000000000000000000000000000000000000000000007bffffffffffffffffffffffffffffffffffffffffffffffffffffffff19166020820180517bffffffffffffffffffffffffffffffffffffffffffffffffffffffff83818316178352505050506200018360201b60201c565b5050565b60008151905060006a636f6e736f6c652e6c6f679050602083016000808483855afa5050505050565b6000604051905090565b600080fd5b600080fd5b600080fd5b600080fd5b6000601f19601f8301169050919050565b7f4e487b7100000000000000000000000000000000000000000000000000000000600052604160045260246000fd5b6200021582620001ca565b810181811067ffffffffffffffff82111715620002375762000236620001db565b5b80604052505050565b60006200024c620001ac565b90506200025a82826200020a565b919050565b600067ffffffffffffffff8211156200027d576200027c620001db565b5b6200028882620001ca565b9050602081019050919050565b60005b83811015620002b557808201518184015260208101905062000298565b60008484015250505050565b6000620002d8620002d2846200025f565b62000240565b905082815260208101848484011115620002f757620002f6620001c5565b5b6200030484828562000295565b509392505050565b600082601f830112620003245762000323620001c0565b5b815162000336848260208601620002c1565b91505092915050565b600060208284031215620003585762000357620001b6565b5b600082015167ffffffffffffffff811115620003795762000378620001bb565b5b62000387848285016200030c565b91505092915050565b600081519050919050565b7f4e487b7100000000000000000000000000000000000000000000000000000000600052602260045260246000fd5b60006002820490506001821680620003e357607f821691505b602082108103620003f957620003f86200039b565b5b50919050565b60008190508160005260206000209050919050565b60006020601f8301049050919050565b600082821b905092915050565b600060088302620004637fffffffffffffffffffffffffffffffffffffffffffffffffffffffffffffffff8262000424565b6200046f868362000424565b95508019841693508086168417925050509392505050565b6000819050919050565b6000819050919050565b6000620004bc620004b6620004b08462000487565b62000491565b62000487565b9050919050565b6000819050919050565b620004d8836200049b565b620004f0620004e782620004c3565b84845462000431565b825550505050565b600090565b62000507620004f8565b62000514818484620004cd565b505050565b5b818110156200053c5762000530600082620004fd565b6001810190506200051a565b5050565b601f8211156200058b576200055581620003ff565b620005608462000414565b8101602085101562000570578190505b620005886200057f8562000414565b83018262000519565b50505b505050565b600082821c905092915050565b6000620005b06000198460080262000590565b1980831691505092915050565b6000620005cb83836200059d565b9150826002028217905092915050565b620005e68262000390565b67ffffffffffffffff811115620006025762000601620001db565b5b6200060e8254620003ca565b6200061b82828562000540565b600060209050601f8311600181146200065357600084156200063e578287015190505b6200064a8582620005bd565b865550620006ba565b601f1984166200066386620003ff565b60005b828110156200068d5784890151825560018201915060208501945060208101905062000666565b86831015620006ad5784890151620006a9601f8916826200059d565b8355505b6001600288020188555050505b505050505050565b600082825260208201905092915050565b6000620006e08262000390565b620006ec8185620006c2565b9350620006fe81856020860162000295565b6200070981620001ca565b840191505092915050565b60006040820190508181036000830152620007308185620006d3565b90508181036020830152620007468184620006d3565b90509392505050565b61167c806200075f6000396000f3fe608060405234801561001057600080fd5b506004361061007d5760003560e01c80638da5cb5b1161005b5780638da5cb5b146100ec578063a29dd6cd1461010a578063b1696f4f14610126578063f2fde38b146101445761007d565b806306fdde03146100825780632e4f8cf6146100a057806384da92a7146100d0575b600080fd5b61008a610160565b6040516100979190610b01565b60405180910390f35b6100ba60048036038101906100b59190610c6c565b6101ee565b6040516100c79190610db7565b60405180910390f35b6100ea60048036038101906100e59190610c6c565b610401565b005b6100f4610414565b6040516101019190610e1a565b60405180910390f35b610124600480360381019061011f9190610e35565b61043a565b005b61012e6105fb565b60405161013b9190611022565b60405180910390f35b61015e60048036038101906101599190611070565b6108b9565b005b6000805461016d906110cc565b80601f0160208091040260200160405190810160405280929190818152602001828054610199906110cc565b80156101e65780601f106101bb576101008083540402835291602001916101e6565b820191906000526020600020905b8154815290600101906020018083116101c957829003601f168201915b505050505081565b6101f6610a40565b6004826040516102069190611139565b90815260200160405180910390206040518060a001604052908160008201548152602001600182018054610239906110cc565b80601f0160208091040260200160405190810160405280929190818152602001828054610265906110cc565b80156102b25780601f10610287576101008083540402835291602001916102b2565b820191906000526020600020905b81548152906001019060200180831161029557829003601f168201915b505050505081526020016002820180546102cb906110cc565b80601f01602080910402602001604051908101604052809291908181526020018280546102f7906110cc565b80156103445780601f1061031957610100808354040283529160200191610344565b820191906000526020600020905b81548152906001019060200180831161032757829003601f168201915b5050505050815260200160038201805461035d906110cc565b80601f0160208091040260200160405190810160405280929190818152602001828054610389906110cc565b80156103d65780601f106103ab576101008083540402835291602001916103d6565b820191906000526020600020905b8154815290600101906020018083116103b957829003601f168201915b505050505081526020016004820160009054906101000a900460ff1615151515815250509050919050565b806000908161041091906112fc565b5050565b600160009054906101000a900473ffffffffffffffffffffffffffffffffffffffff1681565b600160009054906101000a900473ffffffffffffffffffffffffffffffffffffffff1673ffffffffffffffffffffffffffffffffffffffff163373ffffffffffffffffffffffffffffffffffffffff161461049457600080fd5b61049e60026109f3565b60006104aa6002610a09565b90506000600360008381526020019081526020016000209050818160000181905550848160010190816104dd91906112fc565b50838160020190816104ef91906112fc565b5060018160040160006101000a81548160ff0219169083151502179055508281600301908161051e91906112fc565b50806004846040516105309190611139565b9081526020016040518091039020600082015481600001556001820181600101908161055c91906113e4565b506002820181600201908161057191906113e4565b506003820181600301908161058691906113e4565b506004820160009054906101000a900460ff168160040160006101000a81548160ff0219169083151502179055509050507f08369ffdc7ea546752bea6e433623f19fd37a1bd81f03846a8152cab53a30104828686866040516105ec94939291906114db565b60405180910390a15050505050565b606060006106096002610a09565b905060008167ffffffffffffffff81111561062757610626610b41565b5b60405190808252806020026020018201604052801561066057816020015b61064d610a40565b8152602001906001900390816106455790505b50905060005b828110156108b057600060018261067d9190611564565b90506000600360008381526020019081526020016000209050806040518060a0016040529081600082015481526020016001820180546106bc906110cc565b80601f01602080910402602001604051908101604052809291908181526020018280546106e8906110cc565b80156107355780601f1061070a57610100808354040283529160200191610735565b820191906000526020600020905b81548152906001019060200180831161071857829003601f168201915b5050505050815260200160028201805461074e906110cc565b80601f016020809104026020016040519081016040528092919081815260200182805461077a906110cc565b80156107c75780601f1061079c576101008083540402835291602001916107c7565b820191906000526020600020905b8154815290600101906020018083116107aa57829003601f168201915b505050505081526020016003820180546107e0906110cc565b80601f016020809104026020016040519081016040528092919081815260200182805461080c906110cc565b80156108595780601f1061082e57610100808354040283529160200191610859565b820191906000526020600020905b81548152906001019060200180831161083c57829003601f168201915b505050505081526020016004820160009054906101000a900460ff1615151515815250508484815181106108905761088f611598565b5b6020026020010181905250505080806108a8906115c7565b915050610666565b50809250505090565b600160009054906101000a900473ffffffffffffffffffffffffffffffffffffffff1673ffffffffffffffffffffffffffffffffffffffff163373ffffffffffffffffffffffffffffffffffffffff161461091357600080fd5b80600160006101000a81548173ffffffffffffffffffffffffffffffffffffffff021916908373ffffffffffffffffffffffffffffffffffffffff16021790555050565b6109ef828260405160240161096d92919061160f565b6040516020818303038152906040527f4b5c4277000000000000000000000000000000000000000000000000000000007bffffffffffffffffffffffffffffffffffffffffffffffffffffffff19166020820180517bffffffffffffffffffffffffffffffffffffffffffffffffffffffff8381831617835250505050610a17565b5050565b6001816000016000828254019250508190555050565b600081600001549050919050565b60008151905060006a636f6e736f6c652e6c6f679050602083016000808483855afa5050505050565b6040518060a00160405280600081526020016060815260200160608152602001606081526020016000151581525090565b600081519050919050565b600082825260208201905092915050565b60005b83811015610aab578082015181840152602081019050610a90565b60008484015250505050565b6000601f19601f8301169050919050565b6000610ad382610a71565b610add8185610a7c565b9350610aed818560208601610a8d565b610af681610ab7565b840191505092915050565b60006020820190508181036000830152610b1b8184610ac8565b905092915050565b6000604051905090565b600080fd5b600080fd5b600080fd5b600080fd5b7f4e487b7100000000000000000000000000000000000000000000000000000000600052604160045260246000fd5b610b7982610ab7565b810181811067ffffffffffffffff82111715610b9857610b97610b41565b5b80604052505050565b6000610bab610b23565b9050610bb78282610b70565b919050565b600067ffffffffffffffff821115610bd757610bd6610b41565b5b610be082610ab7565b9050602081019050919050565b82818337600083830152505050565b6000610c0f610c0a84610bbc565b610ba1565b905082815260208101848484011115610c2b57610c2a610b3c565b5b610c36848285610bed565b509392505050565b600082601f830112610c5357610c52610b37565b5b8135610c63848260208601610bfc565b91505092915050565b600060208284031215610c8257610c81610b2d565b5b600082013567ffffffffffffffff811115610ca057610c9f610b32565b5b610cac84828501610c3e565b91505092915050565b6000819050919050565b610cc881610cb5565b82525050565b600082825260208201905092915050565b6000610cea82610a71565b610cf48185610cce565b9350610d04818560208601610a8d565b610d0d81610ab7565b840191505092915050565b60008115159050919050565b610d2d81610d18565b82525050565b600060a083016000830151610d4b6000860182610cbf565b5060208301518482036020860152610d638282610cdf565b91505060408301518482036040860152610d7d8282610cdf565b91505060608301518482036060860152610d978282610cdf565b9150506080830151610dac6080860182610d24565b508091505092915050565b60006020820190508181036000830152610dd18184610d33565b905092915050565b600073ffffffffffffffffffffffffffffffffffffffff82169050919050565b6000610e0482610dd9565b9050919050565b610e1481610df9565b82525050565b6000602082019050610e2f6000830184610e0b565b92915050565b600080600060608486031215610e4e57610e4d610b2d565b5b600084013567ffffffffffffffff811115610e6c57610e6b610b32565b5b610e7886828701610c3e565b935050602084013567ffffffffffffffff811115610e9957610e98610b32565b5b610ea586828701610c3e565b925050604084013567ffffffffffffffff811115610ec657610ec5610b32565b5b610ed286828701610c3e565b9150509250925092565b600081519050919050565b600082825260208201905092915050565b6000819050602082019050919050565b600060a083016000830151610f206000860182610cbf565b5060208301518482036020860152610f388282610cdf565b91505060408301518482036040860152610f528282610cdf565b91505060608301518482036060860152610f6c8282610cdf565b9150506080830151610f816080860182610d24565b508091505092915050565b6000610f988383610f08565b905092915050565b6000602082019050919050565b6000610fb882610edc565b610fc28185610ee7565b935083602082028501610fd485610ef8565b8060005b858110156110105784840389528151610ff18582610f8c565b9450610ffc83610fa0565b925060208a01995050600181019050610fd8565b50829750879550505050505092915050565b6000602082019050818103600083015261103c8184610fad565b905092915050565b61104d81610df9565b811461105857600080fd5b50565b60008135905061106a81611044565b92915050565b60006020828403121561108657611085610b2d565b5b60006110948482850161105b565b91505092915050565b7f4e487b7100000000000000000000000000000000000000000000000000000000600052602260045260246000fd5b600060028204905060018216806110e457607f821691505b6020821081036110f7576110f661109d565b5b50919050565b600081905092915050565b600061111382610a71565b61111d81856110fd565b935061112d818560208601610a8d565b80840191505092915050565b60006111458284611108565b915081905092915050565b60008190508160005260206000209050919050565b60006020601f8301049050919050565b600082821b905092915050565b6000600883026111b27fffffffffffffffffffffffffffffffffffffffffffffffffffffffffffffffff82611175565b6111bc8683611175565b95508019841693508086168417925050509392505050565b6000819050919050565b60006111f96111f46111ef84610cb5565b6111d4565b610cb5565b9050919050565b6000819050919050565b611213836111de565b61122761121f82611200565b848454611182565b825550505050565b600090565b61123c61122f565b61124781848461120a565b505050565b5b8181101561126b57611260600082611234565b60018101905061124d565b5050565b601f8211156112b05761128181611150565b61128a84611165565b81016020851015611299578190505b6112ad6112a585611165565b83018261124c565b50505b505050565b600082821c905092915050565b60006112d3600019846008026112b5565b1980831691505092915050565b60006112ec83836112c2565b9150826002028217905092915050565b61130582610a71565b67ffffffffffffffff81111561131e5761131d610b41565b5b61132882546110cc565b61133382828561126f565b600060209050601f8311600181146113665760008415611354578287015190505b61135e85826112e0565b8655506113c6565b601f19841661137486611150565b60005b8281101561139c57848901518255600182019150602085019450602081019050611377565b868310156113b957848901516113b5601f8916826112c2565b8355505b6001600288020188555050505b505050505050565b6000815490506113dd816110cc565b9050919050565b8181036113f25750506114ca565b6113fb826113ce565b67ffffffffffffffff81111561141457611413610b41565b5b61141e82546110cc565b61142982828561126f565b6000601f8311600181146114585760008415611446578287015490505b61145085826112e0565b8655506114c3565b601f19841661146687611150565b965061147186611150565b60005b8281101561149957848901548255600182019150600185019450602081019050611474565b868310156114b657848901546114b2601f8916826112c2565b8355505b6001600288020188555050505b5050505050505b565b6114d581610cb5565b82525050565b60006080820190506114f060008301876114cc565b81810360208301526115028186610ac8565b905081810360408301526115168185610ac8565b9050818103606083015261152a8184610ac8565b905095945050505050565b7f4e487b7100000000000000000000000000000000000000000000000000000000600052601160045260246000fd5b600061156f82610cb5565b915061157a83610cb5565b925082820190508082111561159257611591611535565b5b92915050565b7f4e487b7100000000000000000000000000000000000000000000000000000000600052603260045260246000fd5b60006115d282610cb5565b91507fffffffffffffffffffffffffffffffffffffffffffffffffffffffffffffffff820361160457611603611535565b5b600182019050919050565b600060408201905081810360008301526116298185610ac8565b9050818103602083015261163d8184610ac8565b9050939250505056fea2646970667358221220c08b5bc524d61fa59ce76d283c69a696252c29b874298c630e5699b8bb361ae864736f6c63430008110033",
  "linkReferences": {},
  "deployedLinkReferences": {}
}