{
  "_format": "hh-sol-artifact-1",
  "contractName": "Eword",
  "sourceName": "contracts/Eword.sol",
  "abi": [
    {
      "inputs": [
        {
          "internalType": "string",
          "name": "_name",
          "type": "string"
        }
      ],
      "stateMutability": "nonpayable",
      "type": "constructor"
    },
    {
      "anonymous": false,
      "inputs": [
        {
          "indexed": false,
          "internalType": "uint256",
          "name": "id",
          "type": "uint256"
        },
        {
          "indexed": false,
          "internalType": "string",
          "name": "engword",
          "type": "string"
        },
        {
          "indexed": false,
          "internalType": "string",
          "name": "plword",
          "type": "string"
        }
      ],
      "name": "EWordCreated",
      "type": "event"
    },
    {
      "inputs": [
        {
          "internalType": "string",
          "name": "engword",
          "type": "string"
        },
        {
          "internalType": "string",
          "name": "plword",
          "type": "string"
        }
      ],
      "name": "createEWord",
      "outputs": [],
      "stateMutability": "nonpayable",
      "type": "function"
    },
    {
      "inputs": [
        {
          "internalType": "string",
          "name": "hash",
          "type": "string"
        }
      ],
      "name": "fetchEWord",
      "outputs": [
        {
          "components": [
            {
              "internalType": "uint256",
              "name": "id",
              "type": "uint256"
            },
            {
              "internalType": "string",
              "name": "engword",
              "type": "string"
            },
            {
              "internalType": "string",
              "name": "plword",
              "type": "string"
            }
          ],
          "internalType": "struct Eword.EWord",
          "name": "",
          "type": "tuple"
        }
      ],
      "stateMutability": "view",
      "type": "function"
    },
    {
      "inputs": [],
      "name": "fetchEWords",
      "outputs": [
        {
          "components": [
            {
              "internalType": "uint256",
              "name": "id",
              "type": "uint256"
            },
            {
              "internalType": "string",
              "name": "engword",
              "type": "string"
            },
            {
              "internalType": "string",
              "name": "plword",
              "type": "string"
            }
          ],
          "internalType": "struct Eword.EWord[]",
          "name": "",
          "type": "tuple[]"
        }
      ],
      "stateMutability": "view",
      "type": "function"
    },
    {
      "inputs": [],
      "name": "name",
      "outputs": [
        {
          "internalType": "string",
          "name": "",
          "type": "string"
        }
      ],
      "stateMutability": "view",
      "type": "function"
    },
    {
      "inputs": [],
      "name": "owner",
      "outputs": [
        {
          "internalType": "address",
          "name": "",
          "type": "address"
        }
      ],
      "stateMutability": "view",
      "type": "function"
    },
    {
      "inputs": [
        {
          "internalType": "address",
          "name": "newOwner",
          "type": "address"
        }
      ],
      "name": "transferOwnership",
      "outputs": [],
      "stateMutability": "nonpayable",
      "type": "function"
    },
    {
      "inputs": [
        {
          "internalType": "string",
          "name": "_name",
          "type": "string"
        }
      ],
      "name": "updateName",
      "outputs": [],
      "stateMutability": "nonpayable",
      "type": "function"
    }
  ],
  "bytecode": "0x60806040523480156200001157600080fd5b50604051620019f0380380620019f083398181016040528101906200003791906200033f565b620000836040518060400160405280601981526020017f4465706c6f79696e6720426c6f672077697468206e616d653a0000000000000081525082620000dd60201b620007331760201c565b8060009081620000949190620005db565b5033600160006101000a81548173ffffffffffffffffffffffffffffffffffffffff021916908373ffffffffffffffffffffffffffffffffffffffff160217905550506200074f565b6200017f8282604051602401620000f692919062000714565b6040516020818303038152906040527f4b5c4277000000000000000000000000000000000000000000000000000000007bffffffffffffffffffffffffffffffffffffffffffffffffffffffff19166020820180517bffffffffffffffffffffffffffffffffffffffffffffffffffffffff83818316178352505050506200018360201b60201c565b5050565b60008151905060006a636f6e736f6c652e6c6f679050602083016000808483855afa5050505050565b6000604051905090565b600080fd5b600080fd5b600080fd5b600080fd5b6000601f19601f8301169050919050565b7f4e487b7100000000000000000000000000000000000000000000000000000000600052604160045260246000fd5b6200021582620001ca565b810181811067ffffffffffffffff82111715620002375762000236620001db565b5b80604052505050565b60006200024c620001ac565b90506200025a82826200020a565b919050565b600067ffffffffffffffff8211156200027d576200027c620001db565b5b6200028882620001ca565b9050602081019050919050565b60005b83811015620002b557808201518184015260208101905062000298565b60008484015250505050565b6000620002d8620002d2846200025f565b62000240565b905082815260208101848484011115620002f757620002f6620001c5565b5b6200030484828562000295565b509392505050565b600082601f830112620003245762000323620001c0565b5b815162000336848260208601620002c1565b91505092915050565b600060208284031215620003585762000357620001b6565b5b600082015167ffffffffffffffff811115620003795762000378620001bb565b5b62000387848285016200030c565b91505092915050565b600081519050919050565b7f4e487b7100000000000000000000000000000000000000000000000000000000600052602260045260246000fd5b60006002820490506001821680620003e357607f821691505b602082108103620003f957620003f86200039b565b5b50919050565b60008190508160005260206000209050919050565b60006020601f8301049050919050565b600082821b905092915050565b600060088302620004637fffffffffffffffffffffffffffffffffffffffffffffffffffffffffffffffff8262000424565b6200046f868362000424565b95508019841693508086168417925050509392505050565b6000819050919050565b6000819050919050565b6000620004bc620004b6620004b08462000487565b62000491565b62000487565b9050919050565b6000819050919050565b620004d8836200049b565b620004f0620004e782620004c3565b84845462000431565b825550505050565b600090565b62000507620004f8565b62000514818484620004cd565b505050565b5b818110156200053c5762000530600082620004fd565b6001810190506200051a565b5050565b601f8211156200058b576200055581620003ff565b620005608462000414565b8101602085101562000570578190505b620005886200057f8562000414565b83018262000519565b50505b505050565b600082821c905092915050565b6000620005b06000198460080262000590565b1980831691505092915050565b6000620005cb83836200059d565b9150826002028217905092915050565b620005e68262000390565b67ffffffffffffffff811115620006025762000601620001db565b5b6200060e8254620003ca565b6200061b82828562000540565b600060209050601f8311600181146200065357600084156200063e578287015190505b6200064a8582620005bd565b865550620006ba565b601f1984166200066386620003ff565b60005b828110156200068d5784890151825560018201915060208501945060208101905062000666565b86831015620006ad5784890151620006a9601f8916826200059d565b8355505b6001600288020188555050505b505050505050565b600082825260208201905092915050565b6000620006e08262000390565b620006ec8185620006c2565b9350620006fe81856020860162000295565b6200070981620001ca565b840191505092915050565b60006040820190508181036000830152620007308185620006d3565b90508181036020830152620007468184620006d3565b90509392505050565b611291806200075f6000396000f3fe608060405234801561001057600080fd5b506004361061007d5760003560e01c806384da92a71161005b57806384da92a7146100ec5780638da5cb5b14610108578063b1696f4f14610126578063f2fde38b146101445761007d565b806306fdde03146100825780631245cb04146100a05780632e4f8cf6146100bc575b600080fd5b61008a610160565b60405161009791906108cd565b60405180910390f35b6100ba60048036038101906100b59190610a38565b6101ee565b005b6100d660048036038101906100d19190610ab0565b6102e5565b6040516100e39190610bb3565b60405180910390f35b61010660048036038101906101019190610ab0565b61044b565b005b61011061045e565b60405161011d9190610c16565b60405180910390f35b61012e610484565b60405161013b9190610d4a565b60405180910390f35b61015e60048036038101906101599190610d98565b610695565b005b6000805461016d90610df4565b80601f016020809104026020016040519081016040528092919081815260200182805461019990610df4565b80156101e65780601f106101bb576101008083540402835291602001916101e6565b820191906000526020600020905b8154815290600101906020018083116101c957829003601f168201915b505050505081565b600160009054906101000a900473ffffffffffffffffffffffffffffffffffffffff1673ffffffffffffffffffffffffffffffffffffffff163373ffffffffffffffffffffffffffffffffffffffff161461024857600080fd5b61025260026107cf565b600061025e60026107e5565b90506000600360008381526020019081526020016000209050818160000181905550838160010190816102919190610fd1565b50828160020190816102a39190610fd1565b507f773f784aabe622d37dd2d07742f0fc5b5f66b4e51e9d8b558c19aa813170e4d48285856040516102d7939291906110b2565b60405180910390a150505050565b6102ed61081c565b6004826040516102fd9190611133565b90815260200160405180910390206040518060600160405290816000820154815260200160018201805461033090610df4565b80601f016020809104026020016040519081016040528092919081815260200182805461035c90610df4565b80156103a95780601f1061037e576101008083540402835291602001916103a9565b820191906000526020600020905b81548152906001019060200180831161038c57829003601f168201915b505050505081526020016002820180546103c290610df4565b80601f01602080910402602001604051908101604052809291908181526020018280546103ee90610df4565b801561043b5780601f106104105761010080835404028352916020019161043b565b820191906000526020600020905b81548152906001019060200180831161041e57829003601f168201915b5050505050815250509050919050565b806000908161045a9190610fd1565b5050565b600160009054906101000a900473ffffffffffffffffffffffffffffffffffffffff1681565b6060600061049260026107e5565b905060008167ffffffffffffffff8111156104b0576104af61090d565b5b6040519080825280602002602001820160405280156104e957816020015b6104d661081c565b8152602001906001900390816104ce5790505b50905060005b8281101561068c5760006001826105069190611179565b90506000600360008381526020019081526020016000209050806040518060600160405290816000820154815260200160018201805461054590610df4565b80601f016020809104026020016040519081016040528092919081815260200182805461057190610df4565b80156105be5780601f10610593576101008083540402835291602001916105be565b820191906000526020600020905b8154815290600101906020018083116105a157829003601f168201915b505050505081526020016002820180546105d790610df4565b80601f016020809104026020016040519081016040528092919081815260200182805461060390610df4565b80156106505780601f1061062557610100808354040283529160200191610650565b820191906000526020600020905b81548152906001019060200180831161063357829003601f168201915b50505050508152505084848151811061066c5761066b6111ad565b5b602002602001018190525050508080610684906111dc565b9150506104ef565b50809250505090565b600160009054906101000a900473ffffffffffffffffffffffffffffffffffffffff1673ffffffffffffffffffffffffffffffffffffffff163373ffffffffffffffffffffffffffffffffffffffff16146106ef57600080fd5b80600160006101000a81548173ffffffffffffffffffffffffffffffffffffffff021916908373ffffffffffffffffffffffffffffffffffffffff16021790555050565b6107cb8282604051602401610749929190611224565b6040516020818303038152906040527f4b5c4277000000000000000000000000000000000000000000000000000000007bffffffffffffffffffffffffffffffffffffffffffffffffffffffff19166020820180517bffffffffffffffffffffffffffffffffffffffffffffffffffffffff83818316178352505050506107f3565b5050565b6001816000016000828254019250508190555050565b600081600001549050919050565b60008151905060006a636f6e736f6c652e6c6f679050602083016000808483855afa5050505050565b60405180606001604052806000815260200160608152602001606081525090565b600081519050919050565b600082825260208201905092915050565b60005b8381101561087757808201518184015260208101905061085c565b60008484015250505050565b6000601f19601f8301169050919050565b600061089f8261083d565b6108a98185610848565b93506108b9818560208601610859565b6108c281610883565b840191505092915050565b600060208201905081810360008301526108e78184610894565b905092915050565b6000604051905090565b600080fd5b600080fd5b600080fd5b600080fd5b7f4e487b7100000000000000000000000000000000000000000000000000000000600052604160045260246000fd5b61094582610883565b810181811067ffffffffffffffff821117156109645761096361090d565b5b80604052505050565b60006109776108ef565b9050610983828261093c565b919050565b600067ffffffffffffffff8211156109a3576109a261090d565b5b6109ac82610883565b9050602081019050919050565b82818337600083830152505050565b60006109db6109d684610988565b61096d565b9050828152602081018484840111156109f7576109f6610908565b5b610a028482856109b9565b509392505050565b600082601f830112610a1f57610a1e610903565b5b8135610a2f8482602086016109c8565b91505092915050565b60008060408385031215610a4f57610a4e6108f9565b5b600083013567ffffffffffffffff811115610a6d57610a6c6108fe565b5b610a7985828601610a0a565b925050602083013567ffffffffffffffff811115610a9a57610a996108fe565b5b610aa685828601610a0a565b9150509250929050565b600060208284031215610ac657610ac56108f9565b5b600082013567ffffffffffffffff811115610ae457610ae36108fe565b5b610af084828501610a0a565b91505092915050565b6000819050919050565b610b0c81610af9565b82525050565b600082825260208201905092915050565b6000610b2e8261083d565b610b388185610b12565b9350610b48818560208601610859565b610b5181610883565b840191505092915050565b6000606083016000830151610b746000860182610b03565b5060208301518482036020860152610b8c8282610b23565b91505060408301518482036040860152610ba68282610b23565b9150508091505092915050565b60006020820190508181036000830152610bcd8184610b5c565b905092915050565b600073ffffffffffffffffffffffffffffffffffffffff82169050919050565b6000610c0082610bd5565b9050919050565b610c1081610bf5565b82525050565b6000602082019050610c2b6000830184610c07565b92915050565b600081519050919050565b600082825260208201905092915050565b6000819050602082019050919050565b6000606083016000830151610c756000860182610b03565b5060208301518482036020860152610c8d8282610b23565b91505060408301518482036040860152610ca78282610b23565b9150508091505092915050565b6000610cc08383610c5d565b905092915050565b6000602082019050919050565b6000610ce082610c31565b610cea8185610c3c565b935083602082028501610cfc85610c4d565b8060005b85811015610d385784840389528151610d198582610cb4565b9450610d2483610cc8565b925060208a01995050600181019050610d00565b50829750879550505050505092915050565b60006020820190508181036000830152610d648184610cd5565b905092915050565b610d7581610bf5565b8114610d8057600080fd5b50565b600081359050610d9281610d6c565b92915050565b600060208284031215610dae57610dad6108f9565b5b6000610dbc84828501610d83565b91505092915050565b7f4e487b7100000000000000000000000000000000000000000000000000000000600052602260045260246000fd5b60006002820490506001821680610e0c57607f821691505b602082108103610e1f57610e1e610dc5565b5b50919050565b60008190508160005260206000209050919050565b60006020601f8301049050919050565b600082821b905092915050565b600060088302610e877fffffffffffffffffffffffffffffffffffffffffffffffffffffffffffffffff82610e4a565b610e918683610e4a565b95508019841693508086168417925050509392505050565b6000819050919050565b6000610ece610ec9610ec484610af9565b610ea9565b610af9565b9050919050565b6000819050919050565b610ee883610eb3565b610efc610ef482610ed5565b848454610e57565b825550505050565b600090565b610f11610f04565b610f1c818484610edf565b505050565b5b81811015610f4057610f35600082610f09565b600181019050610f22565b5050565b601f821115610f8557610f5681610e25565b610f5f84610e3a565b81016020851015610f6e578190505b610f82610f7a85610e3a565b830182610f21565b50505b505050565b600082821c905092915050565b6000610fa860001984600802610f8a565b1980831691505092915050565b6000610fc18383610f97565b9150826002028217905092915050565b610fda8261083d565b67ffffffffffffffff811115610ff357610ff261090d565b5b610ffd8254610df4565b611008828285610f44565b600060209050601f83116001811461103b5760008415611029578287015190505b6110338582610fb5565b86555061109b565b601f19841661104986610e25565b60005b828110156110715784890151825560018201915060208501945060208101905061104c565b8683101561108e578489015161108a601f891682610f97565b8355505b6001600288020188555050505b505050505050565b6110ac81610af9565b82525050565b60006060820190506110c760008301866110a3565b81810360208301526110d98185610894565b905081810360408301526110ed8184610894565b9050949350505050565b600081905092915050565b600061110d8261083d565b61111781856110f7565b9350611127818560208601610859565b80840191505092915050565b600061113f8284611102565b915081905092915050565b7f4e487b7100000000000000000000000000000000000000000000000000000000600052601160045260246000fd5b600061118482610af9565b915061118f83610af9565b92508282019050808211156111a7576111a661114a565b5b92915050565b7f4e487b7100000000000000000000000000000000000000000000000000000000600052603260045260246000fd5b60006111e782610af9565b91507fffffffffffffffffffffffffffffffffffffffffffffffffffffffffffffffff82036112195761121861114a565b5b600182019050919050565b6000604082019050818103600083015261123e8185610894565b905081810360208301526112528184610894565b9050939250505056fea26469706673582212204c24254d8fafb4d8aedf3c56eb1eb1ce5b87a9299241bee5b166e4999af9a13a64736f6c63430008110033",
  "linkReferences": {},
  "deployedLinkReferences": {}
}